{
  "_format": "hh-sol-artifact-1",
  "contractName": "ArtManagement",
  "sourceName": "contracts/AddArtWork.sol",
  "abi": [
    {
      "anonymous": false,
      "inputs": [
        {
          "indexed": false,
          "internalType": "address",
          "name": "recipient",
          "type": "address"
        },
        {
          "indexed": false,
          "internalType": "uint256",
          "name": "artId",
          "type": "uint256"
        }
      ],
      "name": "AddArt",
      "type": "event"
    },
    {
      "anonymous": false,
      "inputs": [
        {
          "indexed": false,
          "internalType": "uint256",
          "name": "artId",
          "type": "uint256"
        },
        {
          "indexed": false,
          "internalType": "bool",
          "name": "finished",
          "type": "bool"
        }
      ],
      "name": "SetFinished",
      "type": "event"
    },
    {
      "inputs": [
        {
          "internalType": "string",
          "name": "name",
          "type": "string"
        },
        {
          "internalType": "uint16",
          "name": "age",
          "type": "uint16"
        },
        {
          "internalType": "string",
          "name": "bread",
          "type": "string"
        },
        {
          "internalType": "bool",
          "name": "finished",
          "type": "bool"
        }
      ],
      "name": "addArt",
      "outputs": [],
      "stateMutability": "nonpayable",
      "type": "function"
    },
    {
      "inputs": [],
      "name": "getFinishedArts",
      "outputs": [
        {
          "components": [
            {
              "internalType": "uint256",
              "name": "id",
              "type": "uint256"
            },
            {
              "internalType": "string",
              "name": "name",
              "type": "string"
            },
            {
              "internalType": "uint256",
              "name": "age",
              "type": "uint256"
            },
            {
              "internalType": "string",
              "name": "bread",
              "type": "string"
            },
            {
              "internalType": "bool",
              "name": "finished",
              "type": "bool"
            }
          ],
          "internalType": "struct ArtManagement.Art[]",
          "name": "",
          "type": "tuple[]"
        }
      ],
      "stateMutability": "view",
      "type": "function"
    },
    {
      "inputs": [],
      "name": "getUnfinishedArts",
      "outputs": [
        {
          "components": [
            {
              "internalType": "uint256",
              "name": "id",
              "type": "uint256"
            },
            {
              "internalType": "string",
              "name": "name",
              "type": "string"
            },
            {
              "internalType": "uint256",
              "name": "age",
              "type": "uint256"
            },
            {
              "internalType": "string",
              "name": "bread",
              "type": "string"
            },
            {
              "internalType": "bool",
              "name": "finished",
              "type": "bool"
            }
          ],
          "internalType": "struct ArtManagement.Art[]",
          "name": "",
          "type": "tuple[]"
        }
      ],
      "stateMutability": "view",
      "type": "function"
    },
    {
      "inputs": [
        {
          "internalType": "uint256",
          "name": "artId",
          "type": "uint256"
        },
        {
          "internalType": "bool",
          "name": "finished",
          "type": "bool"
        }
      ],
      "name": "setFinished",
      "outputs": [],
      "stateMutability": "nonpayable",
      "type": "function"
    }
  ],
  "bytecode": "0x608060405234801561001057600080fd5b50610a6c806100206000396000f3fe608060405234801561001057600080fd5b506004361061004c5760003560e01c80636aa835a8146100515780636d66ff8f1461006657806376f3b4d0146100795780638ee33e9814610097575b600080fd5b61006461005f366004610662565b61009f565b005b610064610074366004610731565b610151565b6100816102a3565b60405161008e9190610807565b60405180910390f35b6100816102b4565b6000828152600160205260409020543373ffffffffffffffffffffffffffffffffffffffff9091160361014d5780600083815481106100e0576100e06108b0565b906000526020600020906005020160040160006101000a81548160ff0219169083151502179055507fa4f349f92993cc89f62be8c4bead1bd7d76d2e9c4d05da59739c6e0dd75f042c82826040516101449291909182521515602082015260400190565b60405180910390a15b5050565b600080546040805160a0810182528281526020810188815261ffff8816928201929092526060810186905284151560808201526001830184559280528251600583027f290decd9548b62a8d60345a988386fc84ba6bc95484008f6362f93160ef3e5638101918255915192939290917f290decd9548b62a8d60345a988386fc84ba6bc95484008f6362f93160ef3e56401906101ed908261094f565b50604082015160028201556060820151600382019061020c908261094f565b50608091909101516004909101805460ff19169115159190911790556000818152600160209081526040918290208054337fffffffffffffffffffffffff0000000000000000000000000000000000000000909116811790915582519081529081018390527f05ee378e17f94cf46b894f50b851fb7459c875e0261ff3c67799363e27467ea3910160405180910390a15050505050565b60606102af60016102bc565b905090565b60606102af60005b600080546060919067ffffffffffffffff8111156102dc576102dc61068e565b60405190808252806020026020018201604052801561034157816020015b61032e6040518060a00160405280600081526020016060815260200160008152602001606081526020016000151581525090565b8152602001906001900390816102fa5790505b5090506000805b60005481101561056b5760008181526001602052604090205473ffffffffffffffffffffffffffffffffffffffff16331480156103b1575084151560008281548110610396576103966108b0565b600091825260209091206004600590920201015460ff161515145b1561055957600081815481106103c9576103c96108b0565b90600052602060002090600502016040518060a0016040529081600082015481526020016001820180546103fc906108c6565b80601f0160208091040260200160405190810160405280929190818152602001828054610428906108c6565b80156104755780601f1061044a57610100808354040283529160200191610475565b820191906000526020600020905b81548152906001019060200180831161045857829003601f168201915b5050505050815260200160028201548152602001600382018054610498906108c6565b80601f01602080910402602001604051908101604052809291908181526020018280546104c4906108c6565b80156105115780601f106104e657610100808354040283529160200191610511565b820191906000526020600020905b8154815290600101906020018083116104f457829003601f168201915b50505091835250506004919091015460ff161515602090910152835184908490811061053f5761053f6108b0565b6020026020010181905250818061055590610a0f565b9250505b8061056381610a0f565b915050610348565b5060008167ffffffffffffffff8111156105875761058761068e565b6040519080825280602002602001820160405280156105ec57816020015b6105d96040518060a00160405280600081526020016060815260200160008152602001606081526020016000151581525090565b8152602001906001900390816105a55790505b50905060005b828110156106445783818151811061060c5761060c6108b0565b6020026020010151828281518110610626576106266108b0565b6020026020010181905250808061063c90610a0f565b9150506105f2565b50949350505050565b8035801515811461065d57600080fd5b919050565b6000806040838503121561067557600080fd5b823591506106856020840161064d565b90509250929050565b634e487b7160e01b600052604160045260246000fd5b600082601f8301126106b557600080fd5b813567ffffffffffffffff808211156106d0576106d061068e565b604051601f8301601f19908116603f011681019082821181831017156106f8576106f861068e565b8160405283815286602085880101111561071157600080fd5b836020870160208301376000602085830101528094505050505092915050565b6000806000806080858703121561074757600080fd5b843567ffffffffffffffff8082111561075f57600080fd5b61076b888389016106a4565b95506020870135915061ffff8216821461078457600080fd5b9093506040860135908082111561079a57600080fd5b506107a7878288016106a4565b9250506107b66060860161064d565b905092959194509250565b6000815180845260005b818110156107e7576020818501810151868301820152016107cb565b506000602082860101526020601f19601f83011685010191505092915050565b60006020808301818452808551808352604092508286019150828160051b87010184880160005b838110156108a257603f19898403018552815160a08151855288820151818a87015261085c828701826107c1565b91505087820151888601526060808301518683038288015261087e83826107c1565b6080948501511515979094019690965250509487019492509086019060010161082e565b509098975050505050505050565b634e487b7160e01b600052603260045260246000fd5b600181811c908216806108da57607f821691505b6020821081036108fa57634e487b7160e01b600052602260045260246000fd5b50919050565b601f82111561094a57600081815260208120601f850160051c810160208610156109275750805b601f850160051c820191505b8181101561094657828155600101610933565b5050505b505050565b815167ffffffffffffffff8111156109695761096961068e565b61097d8161097784546108c6565b84610900565b602080601f8311600181146109b2576000841561099a5750858301515b600019600386901b1c1916600185901b178555610946565b600085815260208120601f198616915b828110156109e1578886015182559484019460019091019084016109c2565b50858210156109ff5787850151600019600388901b60f8161c191681555b5050505050600190811b01905550565b600060018201610a2f57634e487b7160e01b600052601160045260246000fd5b506001019056fea264697066735822122038e90a3b22348c2121b6e5cb826b13c84d92aef6ca80c1a9c027b769d6c6b41564736f6c63430008110033",
  "linkReferences": {},
  "deployedLinkReferences": {}
}